:020000040800F2
:1000000000800120611A0008B11A0008B11A000826
:10001000B11A0008B11A0008B11A00080000000067
:10002000000000000000000000000000B11A0008FD
:10003000B11A000800000000B11A0008F31500080A
:10004000B11A0008B11A0008B11A0008B11A000864
:10005000B11A0008B11A0008B11A0008B11A000854
:10006000B11A0008B11A0008B11A0008B11A000844
:10007000B11A0008B11A0008B11A0008B11A000834
:10008000B11A0008B11A0008B11A000800000000F7
:10009000000000000000000000000000B11A00088D
:1000A000B11A0008B11A0008B11A0008B11A000804
:1000B000B11A000801160008B11A0008B11A0008A8
:1000C000B11A0008B11A0008B11A0008B11A0008E4
:1000D000B11A0008B11A0008B11A000800000000A7
:1000E000B11A0008B11A0008B11A00080000000097
:1000F000000000000000000000000000B11A00082D
:1001000000000000B11A0008B11A0008B11A000876
:1001100000000000000000000000000000000000DF
:10012000B11A0008B11A0008B11A0008B11A000883
:10013000B11A0008000000000000000000000000EC
:10014000000000000000000000000000B11A0008DC
:10015000B11A0008B11A0008B11A0008B11A000853
:10016000B11A0008B11A00080000000000000000E9
:10017000000000000000000000000000000000007F
:1001800000000000B11A000800000000000000009C
:04019000B11A000898
:1001940010B5054C237833B9044B13B10448AFF3BD
:1001A40000800123237010BD1C000020000000000B
:1001B400FC1A000808B5034B1BB103490348AFF30D
:1001C400008008BD0000000020000020FC1A000888
:1001D40053B94AB9002908BF00281CBF4FF0FF31AA
:1001E4004FF0FF3000F072B9ADF1080C6DE904CEA8
:1001F40000F006F8DDF804E0DDE9022304B07047FE
:100204002DE9F047089E04468846002B4BD18A42CC
:10021400154667D9B2FA82F24AB1C2F1200701FA4F
:1002240002F320FA07F7954047EA030894404FEA9F
:10023400154E230CB8FBFEF71FFA85FC0EFB17883E
:1002440043EA084307FB0CF1994209D9EB1807F17B
:10025400FF3080F01B81994240F21881023F2B4409
:100264005B1AA4B2B3FBFEF00EFB103344EA034462
:1002740000FB0CFCA44509D92C1900F1FF3380F0D4
:100284000781A44540F2048102382C4440EA074027
:10029400A4EB0C0400271EB1D4400023C6E900439C
:1002A4003946BDE8F0878B4209D9002E00F0EB8077
:1002B4000027C6E9000138463946BDE8F087B3FA9D
:1002C40083F7002F47D18B4202D3824200F2FA8097
:1002D400841A61EB030301209846002EE0D0C6E99E
:1002E4000048DDE702B9FFDEB2FA82F2002A40F0EC
:1002F4008F80491B4FEA154E1FFA85F80127B1FB81
:10030400FEFC230C0EFB1C1143EA014308FB0CF119
:10031400994207D9EB180CF1FF3002D2994200F24E
:10032400CD808446591AA3B2B1FBFEF00EFB101423
:1003340043EA044408FB00F8A04507D92C1900F14E
:10034400FF3302D2A04500F2B6801846A4EB08049D
:1003540040EA0C409FE7C7F1200CBB4022FA0CFE98
:100364004EEA030E01FA07F420FA0CF521FA0CF315
:100374004FEA1E482543B3FBF8F92C0C08FB19334C
:100384001FFA8EFA44EA034309FB0AF49C4202FA78
:1003940007F200FA07F10BD91EEB030309F1FF3052
:1003A40080F087809C4240F28480A9F10209734462
:1003B4001B1BADB2B3FBF8F008FB103345EA034452
:1003C40000FB0AFAA24508D91EEB040400F1FF332E
:1003D4006BD2A24569D90238744440EA0940A0FBB3
:1003E4000289A4EB0A044C45C2464B4654D351D06F
:1003F400002E69D0B1EB0A0564EB030404FA0CFC8B
:10040400FD40FC404CEA0505C6E90054002747E7D7
:10041400C2F1200320FA03F7954001FA02F021FA11
:1004240003F34FEA154E3843010CB3FBFEF71FFAF2
:1004340085F80EFB173341EA034107FB08F38B42AF
:1004440004FA02F407D9691807F1FF3C2FD28B4252
:100454002DD9023F2944CB1A81B2B3FBFEF00EFB27
:10046400103341EA034100FB08F38B4207D96918B2
:1004740000F1FF3C17D28B4215D902382944C91A1E
:1004840040EA07473BE73746304609E70746E7E6D1
:100494001846FBE64145ABD2B8EB020A69EB0E0203
:1004A40001381346A4E76046E9E7184695E767462E
:1004B400D1E781467CE702382C4447E7ACF1020CD3
:1004C4002B442FE7384608E73746E9E6704700BF74
:1004D40010B504460E4B18784FF47A73B3FBF0F35F
:1004E4000C4A1068B0FBF3F000F096F868B90F2CD2
:1004F40001D901200AE0002221464FF0FF3000F02C
:1005040049F8034B5C60002000E0012010BD00BFEF
:10051400000000201800002008B50B4B1A6842F4B4
:1005240000721A601A6842F480621A601A6842F40F
:1005340080721A60032000F01BF80020FFF7C8FF48
:1005440001F0E0F9002008BD003C0240034A1168B4
:10055400034B1B780B441360704700BF3800002026
:1005640000000020014B1868704700BF38000020CD
:10057400074AD36823F4E0631B041B0C000200F455
:10058400E060184340F0BF6040F40030D060704732
:1005940000ED00E030B4174BDB68C3F30223C3F172
:1005A4000704042C28BF04241D1D062D18D9033B61
:1005B4004FF0FF3505FA04F421EA0401994005FAE5
:1005C40003F322EA0303194300280BDB0901C9B230
:1005D40000F1604000F5614080F8001330BC7047C2
:1005E4000023E5E700F00F000901C9B2024B1954DA
:1005F400F4E700BF00ED00E014ED00E0002807DBA5
:1006040000F01F02400901239340024A42F82030BF
:10061400704700BF00E100E00138B0F1807F0AD2EA
:10062400064B5860064AF02182F823100020986097
:1006340007221A6070470120704700BF10E000E0F5
:1006440000ED00E0042805D0054A136823F00403F4
:1006540013607047024A136843F004031360704741
:1006640010E000E0704708B5FFF7FCFF08BD00008C
:1006740000230F2B00F2C580F0B583B039E00422CB
:1006840000E00022AA403A4302345E4D45F824209B
:100694005D4A1468F24302EA04054F6817F4803F88
:1006A40001D046EA0405584C2560646802EA040552
:1006B4004F6817F4003F01D046EA0405524C6560C8
:1006C400A46802EA04054F6817F4801F01D046EAC3
:1006D40004054D4CA560E46822404D6815F4001FE4
:1006E40001D046EA0402484CE26001330F2B00F2C9
:1006F400868001229A400C6804EA0206B242F4D1D0
:100704004C68651E012D03D9112C01D0122C12D175
:1007140085685F000324BC4025EA0405CC68BC401E
:100724002C438460456825EA02054C68C4F3001232
:100734009A402A434260C4685F000322BA40D2430D
:1007440014408D68BD402543C5604C68022C01D01F
:10075400122C13D1DD08083550F825E003F0070406
:100764004FEA840C0F2404FA0CF42EEA040E0C69EC
:1007740004FA0CF444EA0E0440F8254004682240CC
:100784004C6804F00304BC40224302604A6812F03F
:10079400805FAAD0002201921C4A546C44F4804425
:1007A4005464526C02F480420192019A9C08A51C84
:1007B400144A52F8257003F0030295000F22AA4050
:1007C40027EA0207124A90423FF45BAF02F58062C7
:1007D40090420ED002F5806290420CD002F5806205
:1007E40090420AD002F5806290423FF448AF07225B
:1007F40048E7012246E7022244E7032242E703B026
:10080400F0BD704700380140003C01400038024010
:1008140000000240002800F0E48170B582B0044674
:10082400036813F0010F3BD0A74B9B6803F00C0344
:10083400042B2CD0A44B9B6803F00C03082B21D071
:100844006368B3F5803F4FD0B3F5A02F52D09E4BD1
:100854001A6822F480321A601A6822F480221A601C
:100864006368002B50D0FFF77DFE0546964B1B684E
:1008740013F4003F14D1FFF775FE401B6428F5D92B
:100884000320B3E1904B5B6813F4800FD8D08E4BF8
:100894001B6813F4003F03D06368002B00F0A381AE
:1008A400236813F0020F55D0874B9B6813F00C0F8D
:1008B4003ED0854B9B6803F00C03082B33D0E368D0
:1008C400002B68D0814B01221A60FFF74BFE0546CE
:1008D4007D4B1B6813F0020F54D1FFF743FE401BFE
:1008E4000228F5D9032081E1774A136843F4803361
:1008F4001360B5E7744B1A6842F480221A601A68D0
:1009040042F480321A60ABE7FFF72CFE05466E4BCB
:100914001B6813F4003FC3D0FFF724FE401B642878
:10092400F5D9032062E1684B5B6813F4800FC6D1EC
:10093400654B1B6813F0020F04D0E368012B01D050
:10094400012053E1604A136823F0F803216943EA64
:10095400C1031360236813F0080F40D0636963B3C5
:100964005B4B01221A60FFF7FDFD0546564B5B6F9A
:1009740013F0020F33D1FFF7F5FD401B0228F5D920
:10098400032033E1504A136823F0F803216943EA52
:10099400C1031360DEE74D4B00221A60FFF7E2FD4E
:1009A4000546494B1B6813F0020FD3D0FFF7DAFD5D
:1009B400401B0228F5D9032018E1454B00221A6098
:1009C400FFF7D0FD0546404B5B6F13F0020F06D0D6
:1009D400FFF7C8FD401B0228F5D9032006E1236870
:1009E40013F0040F79D0384B1B6C13F0805F33D1B4
:1009F40000230193344B1A6C42F080521A641B6C2E
:100A040003F080530193019B0125324B1B6813F4BF
:100A1400807F23D0A368012B34D0052B38D02A4BF8
:100A24001A6F22F001021A671A6F22F004021A6781
:100A3400A368002B36D0FFF795FD0646224B1B6FAB
:100A440013F0020F48D1FFF78DFD801B41F288336C
:100A54009842F3D90320C9E00025D6E71D4A13685C
:100A640043F480731360FFF77DFD0646194B1B6842
:100A740013F4807FCED1FFF775FD801B0228F5D9D2
:100A84000320B3E0104A136F43F001031367CFE769
:100A94000D4B1A6F42F004021A671A6F42F00102FA
:100AA4001A67C5E7FFF75EFD0646074B1B6F13F099
:100AB400020F11D0FFF756FD801B41F28833984294
:100AC400F3D9032092E000BF0038024000004742FF
:100AD400800E474200700040EDB9A369002B00F07E
:100AE4008480454A926802F00C02082A51D0022BF5
:100AF40017D0424B00221A60FFF734FD04463E4BE8
:100B04001B6813F0007F42D0FFF72CFD001B022866
:100B1400F5D903206AE0384A136C23F08053136438
:100B2400DBE7364B00221A60FFF71CFD0546324B0B
:100B34001B6813F0007F06D0FFF714FD401B02284A
:100B4400F5D9032052E0E369226A1343626A43EA57
:100B54008213A26A5208013A43EA0243E26A43EA70
:100B64000263254A5360254B01221A60FFF7FAFC01
:100B74000446214B1B6813F0007F06D1FFF7F2FCFB
:100B8400001B0228F5D9032030E000202EE00020CD
:100B94002CE0012B2CD0184B5B6803F48001E26934
:100BA400914201D0012021E003F03F02216A8A42F0
:100BB40001D001201AE0616A47F6C0721A408A42E5
:100BC40001D0012012E003F44032A16A8A4201D02C
:100BD40001200BE003F07063E26A93420AD0012023
:100BE40004E001207047012000E0002002B070BD45
:100BF4000120FBE70020F9E700380240600047428B
:100C0400324B9B6803F00C03042B5CD0082B01D0FF
:100C14002F4870472DE9F04B2C4B5A6802F03F02E5
:100C24005B6813F4800F2BD0284B5B68C3F38813E5
:100C34001E4600275C010025E41A65EB0705A9019F
:100C440041EA9461A001001B61EB0501CB0043EA7A
:100C54005073C400A01943EB07014B0243EAD0537D
:100C64004402204619460023FFF7B2FA174B5B688B
:100C7400C3F3014301335B00B0FBF3F0BDE8F08B39
:100C8400124B5B68C3F388131E4600275C010025E2
:100C9400E41A65EB0705A90141EA9461A001001B70
:100CA40061EB0501CB0043EA5073C400A01943EB88
:100CB40007018B0243EA905384022046194600231D
:100CC400FFF786FAD2E70348704700BF00380240B6
:100CD4000024F40000127A00002800F09E8070B511
:100CE4000446504B1B6803F00F038B4209D2CBB26E
:100CF4004C4A1370136803F00F038B4201D0012098
:100D040070BD236813F0020F17D013F0040F04D042
:100D1400454A936843F4E0539360236813F0080F43
:100D240004D0414A936843F4604393603E4A936815
:100D340023F0F003A068034393600D46236813F087
:100D4400010F32D06368012B21D09A1E012A25D9C4
:100D5400354A126812F0020F61D033498A6822F0D2
:100D6400030213438B60FFF7FDFB06462E4B9B6883
:100D740003F00C036268B3EB820F16D0FFF7F2FBAB
:100D8400801B41F288339842F0D90320B8E7264A01
:100D9400126812F4003FE0D10120B1E7224A126840
:100DA40012F0007FD9D10120AAE71E4B1B6803F083
:100DB4000F03AB4209D9EAB21A4B1A701B6803F04D
:100DC4000F03AB4201D001209AE7236813F0040F0C
:100DD40006D0154A936823F4E053E1680B4393600B
:100DE400236813F0080F07D00F4A936823F4604375
:100DF400216943EAC1039360FFF702FF0A4B9B6832
:100E0400C3F30313094AD35CD840094B1860094B58
:100E14001868FFF75DFB002072E70120704701208E
:100E24006EE700BF003C024000380240141B00087B
:100E34001800002004000020014B1868704700BF10
:100E44001800002008B5FFF7F7FF044B9B68C3F3B5
:100E54008223034AD35CD84008BD00BF0038024057
:100E6400241B000808B5FFF7E7FF044B9B68C3F396
:100E74004233034AD35CD84008BD00BF0038024067
:100E8400241B000870B4036A23F001030362036A9D
:100E94004268846924F073040D6845EA040623F06B
:100EA40002048B6823430D4DA84209D00B4DA84280
:100EB4000DD0426086614A684263036270BC704729
:100EC40023F00803CC68234323F00403EEE722F461
:100ED40040724C6914438A692243EAE700000140E6
:100EE40030B4036A23F480730362036A4268C469FA
:100EF40024F073040D682C4323F400738D6843EAD3
:100F040005230F4DA84209D00D4DA8420ED04260D2
:100F1400C4614A68C263036230BC704723F400634F
:100F2400CD6843EA052323F48063EDE722F44052BD
:100F34004D6942EA05128D6942EA0512E7E700BFEE
:100F44000000014030B4036A23F480530362036A4F
:100F54004468C26922F4E6420D6842EA052223F499
:100F640000538D6843EA0533074DA84206D0446018
:100F7400C2614A680264036230BC704724F480444E
:100F84004D6944EA8514F2E7000001400C2914D8A5
:100F9400DFE801F0071313130A1313130D131313CC
:100FA40010000368586B70470368986B70470368B8
:100FB400D86B70470368186C7047002070477047FF
:100FC40070477047704710B5044603681A6912F0F9
:100FD400020F11D0DA6812F0020F0DD06FF0020286
:100FE4001A610123037703689B6913F0030F70D020
:100FF400FFF7E6FF0023237723681A6912F0040F32
:1010040012D0DA6812F0040F0ED06FF004021A61E5
:101014000223237723689B6913F4407F5FD0204623
:10102400FFF7CEFF0023237723681A6912F0080F15
:1010340012D0DA6812F0080F0ED06FF008021A61AD
:10104400042323772368DB6913F0030F4ED0204673
:10105400FFF7B6FF0023237723681A6912F0100FF5
:1010640012D0DA6812F0100F0ED06FF010021A616D
:10107400082323772368DB6913F4407F3DD020469F
:10108400FFF79EFF0023237723681A6912F0010FEC
:1010940003D0DA6812F0010F36D123681A6912F00E
:1010A400800F03D0DA6812F0800F34D123681A69F4
:1010B40012F0400F03D0DA6812F0400F32D12368E7
:1010C4001A6912F0200F03D0DA6812F0200F30D121
:1010D40010BD00F0B9FA2046FFF773FF8AE72046F7
:1010E40000F0B2FA2046FFF76CFF9BE7204600F0C1
:1010F400ABFA2046FFF765FFACE7204600F0A4FA00
:101104002046FFF75EFFBDE76FF001021A6120463B
:10111400FFF755FFC1E76FF080021A61204600F027
:101124002AF9C3E76FF040021A612046FFF74AFF2D
:10113400C5E76FF020021A61204600F01BF9C7E7EB
:101144000368254A90420ED0B0F1804F0BD0A2F52F
:101154007C42904207D002F58062904203D002F5AF
:101164008062904203D123F070034A6813431A4A01
:1011740090421AD0B0F1804F17D0A2F57C42904231
:1011840013D002F5806290420FD002F58062904243
:101194000BD002F59A32904207D002F58062904259
:1011A40003D002F58062904203D123F44073CA68ED
:1011B400134323F080034A69134303608B68C362BB
:1011C4000B688362044B984202D001234361704749
:1011D4000B690363F9E700BF00000140A8B110B533
:1011E400044690F83D305BB1022384F83D30211D64
:1011F4002068FFF7A5FF012384F83D30002010BDCF
:1012040080F83C3000F09CFBEEE7012070470000C2
:1012140030B4036A23F010030362036A44688269EA
:1012240022F4E6420D6842EA052223F020038D6889
:1012340043EA05130E4DA84209D00D4DA8420ED025
:10124400446082614A688263036230BC704723F061
:101254008003CD6843EA051323F04003EDE724F44B
:1012640040644D6944EA85048D6944EA8504E7E7EE
:101274000000014090F83C30012B28D010B5044602
:10128400012380F83C30022380F83D300C2A0BD82F
:10129400DFE802F0070A0A0A110A0A0A150A0A0A0A
:1012A40019000068FFF7EEFD012384F83D300020AB
:1012B40084F83C0010BD0068FFF7AAFFF4E700685B
:1012C400FFF70EFEF0E70068FFF73CFEECE70220B4
:1012D400704710B401F01F01012303FA01F4036AFB
:1012E40023EA04030362036A8A40134303625DF83A
:1012F400044B704710B504460C290DD8DFE801F003
:10130400070C0C0C200C0C0C260C0C0C2C0002688A
:10131400D36843F00203D36001222068FFF7D9FFAA
:101324002368134A93421DD02268936803F007038D
:10133400062B03D0136843F001031360002010BD93
:101344000268D36843F00403D360E5E70268D36816
:1013540043F00803D360DFE70268D36843F0100367
:10136400D360D9E75A6C42F400425A64DCE700BF08
:1013740000000140704770472DE9F04B04460268B5
:10138400136923F44053C1680B43136183680269F2
:10139400134342691343C2691A430168CB6823F4B7
:1013A400164323F00C031343CB600268536923F400
:1013B400407381690B435361C369B3F5004F3BD05C
:1013C4000368714A934200F0AB8002F58062934255
:1013D40000F0A680FFF736FD4FF00009061849EB30
:1013E400090716EB000B47EB090C4FEACC0343EA61
:1013F4005B734FEACB0293469C4663689A009B0F4B
:1014040010EB0B0049EB0C01FEF7E2FE5F4DA5FB70
:1014140000325109642202FB110213013233A5FB8D
:1014240003235B0903F0F00202EB011203F00F0344
:10143400216813448B60A4E00368534A934239D073
:1014440002F58062934235D0FFF7FCFC83464FF0EF
:10145400000C06184CEB0C0716EB000847EB0C09C4
:101464004FEAC90343EA58734FEAC80290469946C3
:1014740062680021921841EB01031BEB08004CEB5E
:101484000901FEF7A5FE414DA5FB00325109642276
:1014940002FB1102D3003233A5FB03235B095A007C
:1014A40002F4F87202EB011203F0070321681344FB
:1014B4008B6066E0FFF7D6FC80464FF00009061803
:1014C40049EB090716EB000B47EB090C4FEACC0379
:1014D40043EA5B734FEACB0293469C466268002161
:1014E400921841EB010318EB0B0049EB0C01FEF7DA
:1014F4006FFE264DA5FB00325109642202FB110246
:10150400D3003233A5FB03235B095A0002F4F872BB
:1015140002EB011203F00703216813448B6030E0EF
:10152400FFF7A0FC4FF00009061849EB090716EB7A
:10153400000B47EB090C4FEACC0343EA5B734FEA19
:10154400CB0293469C4663689A009B0F10EB0B00FA
:1015540049EB0C01FEF73CFE0C4DA5FB0032510992
:10156400642202FB110213013233A5FB03235B093E
:1015740003F0F00202EB011203F00F03216813449D
:101584008B60BDE8F08B00BF001001401F85EB515C
:1015940058B310B5044690F839300BB3242384F8BB
:1015A40039302268D36823F40053D3602046FFF710
:1015B400E3FE2268136923F490431361226853699C
:1015C40023F02A0353612268D36843F40053D360A1
:1015D4000020E063202384F8393084F83A3010BDC9
:1015E40080F8383000F0F2F9D8E70120704708B5E8
:1015F400FEF7ACFFFFF737F808BD000008B5024856
:10160400FFF7E1FC08BD00BF3C00002000B587B037
:10161400002100910A4B1A6B42F001021A631B6B02
:1016240003F001030093009B012302932023019301
:10163400039101A90348FFF71BF807B05DF804FB09
:10164400003802400000024000B583B00190037FDF
:10165400012B0ED0019B1B7F022B17D0019B1B7FFC
:10166400042B21D0019B1B7F082B2AD003B05DF8EB
:1016740004FB002101A8FFF789FC184B1860019BAB
:101684001B68174A126810445863E3E704210DEB02
:101694000100FFF77BFC114B1860019B1B68104A8B
:1016A400526810449863D9E7082101A8FFF76EFC3B
:1016B4000A4B1860019B1B68094A92681044D8635E
:1016C400D0E70C2101A8FFF761FC044B1860019BD3
:1016D4001B68034AD26810441864C7E77C000020E2
:1016E40008000020FEE7000010B592B00123069325
:1016F4004FF4A023079310230A9302230C934FF46F
:1017040080030D93542844D018D9782852D0A8289F
:101714003DD108230E934FF4A8730F930223109323
:1017240011930F2201920293002303934FF4A053C9
:1017340004934FF480530593052412E0322826D1F4
:1017440008230E9364230F930223109311930F2203
:1017540001920293002303934FF48053049305935F
:10176400012406A8FFF756F8002837D1214601A81E
:10177400FFF7B2FA002833D1FFF75EFB194BA3FB46
:1017840000308009FEF748FF0420FEF75BFF12B02B
:1017940010BD08230E93A8230F93022410941194D0
:1017A4000F2301930294002303934FF48053049373
:1017B4000593D6E708230E93F0230F930223109387
:1017C40011930F2201920293002303934FF4A05329
:1017D40004934FF4805305930324C2E7FFF782FF79
:1017E400FFF780FFD34D621000B589B02048214B2C
:1017F40003604FF0FF33C36001234360FFF7EEFC47
:1018040000282AD130230193002204921A4B1B682A
:10181400029301A91648FFF72DFD00BB164B5B6828
:10182400029304220DEB02011148FFF723FDC0B916
:10183400114B9B680293082201A90D48FFF71AFD7A
:1018440088B90D4BDB6802930C2201A90848FFF705
:1018540011FD50B909B05DF804FBFFF743FFFFF732
:1018640041FFFFF73FFFFFF73DFFFFF73BFF00BFDF
:101874003C000020000400400800002008B509488E
:10188400094B03604FF4E133436000238360C3607A
:10189400036183610C234361FFF77AFE00B908BD3D
:1018A400FFF720FF800000200044004008B5FEF749
:1018B40033FE3220FFF718FFFFF7E0FFFFF7A6FE25
:1018C400FFF792FF00210E48FFF714FD08B1FFF760
:1018D40009FF04210A48FFF70DFD08B1FFF702FFD5
:1018E40008210748FFF706FD08B1FFF7FBFE0C21AE
:1018F4000348FFF7FFFC00B9FEE7FFF7F3FE00BF64
:101904003C00002008B50320FEF732FE0B4A536A60
:1019140043F4E0235362002211466FF00B00FEF7FC
:1019240039FE002211466FF00A00FEF733FE002252
:1019340011466FF00900FEF72DFE08BD00ED00E032
:1019440070B588B0002400941E4B1A6C42F0020259
:101954001A641A6C02F002020092009A01941A6B43
:1019640042F001021A631A6B02F001020192019A19
:1019740002941A6B42F002021A631B6B03F0020317
:101984000293029BC02303930225049505940694B5
:1019940007950D4E03A93046FEF76AFE0323039311
:1019A400049505940694079503A93046FEF760FE56
:1019B40022460F211D20FEF7EDFD1D20FEF71EFE21
:1019C40008B070BD003802400000024030B589B054
:1019D40000240194184B1A6C42F400321A641A6CF5
:1019E40002F400320192019A02941A6B42F001024D
:1019F4001A631B6B03F001030293029B04230393FA
:101A040002230493012305930694072307930B4DA4
:101A140003A92846FEF72CFE0823039303A92846AE
:101A2400FEF726FE2620FEF7E9FD22460F2126209A
:101A3400FEF7B0FD09B030BD00380240000002409E
:101A4400054BD3F8882042F47002C3F888204FF085
:101A540000629A60704700BF00ED00E0DFF834D008
:101A6400002103E00C4B5B58435004310B480C4BF2
:101A740042189A42F6D30B4A02E0002342F8043B90
:101A8400094B9A42F9D3FFF7DBFF00F011F8FFF797
:101A94000DFF7047008001203C1B0008000000205F
:101AA4001C0000201C000020C0000020FEE70000F5
:101AB40070B50D4E0D4CA41BA4100025A54209D1F0
:101AC4000B4E0C4C00F018F8A41BA4100025A542E2
:101AD40005D170BD56F8253098470135EEE756F824
:101AE400253098470135F2E7341B0008341B000801
:101AF400341B0008381B0008F8B500BFF8BC08BC4C
:101B04009E467047F8B500BFF8BC08BC9E467047B7
:101B14000000000000000000010203040607080999
:081B24000000000001020304AF
:081B2C00D8E6FF7F0100000074
:041B3400B9010008EB
:041B3800950100080B
:101B3C000100000010000000A8610000D43000007B
:0C1B4C006A180000350C00000024F400B2
:0400000508001A6174
:00000001FF
